:0B00AF00C0F9A4B0999282F88090BFC5
:0A00A400080804030A02010A020121
:10008F00EF4E6010EF1F70011EE4FDEDC39474502E
:04009F00EF0D80F7EA
:0100A300223A
:0700BA0075A0337580F022F0
:03000000020003F8
:0C000300787FE4F6D8FD75810F02004AFA
:10000F000200BAE493A3F8E493A34003F68001F24D
:10001F0008DFF48029E493A3F85407240CC8C333F2
:10002F00C4540F4420C8834004F456800146F6DFC1
:10003F00E4800B01020408102040809000A4E47EAD
:10004F00019360BCA3FF543F30E509541FFEE493B6
:10005F00A360010ECF54C025E060A840B8E493A37D
:10006F00FAE493A3F8E493A3C8C582C8CAC583CAA8
:10007F00F0A3C8C582C8CAC583CADFE9DEE780BE60
:0100AE000051
:00000001FF
