:10008F002412071017141417103F100020F8000047
:10009F00C04040C808F80000000000000000000049
:1000AF004041CE0400FC040202FC040404FC0000E6
:1000BF0040201F2040474241405F404244434000A0
:1000CF00044004400440084208421042203E4000D1
:1000DF000100211019180D10092001047FFE0440A2
:1000EF0000F80000FE40308F0A08186808880800E2
:1000FF00001F00007F00007F21213F21217F010091
:10016E00202028407C44457F44420F32D2125F3219
:10017E001212001020C402FC0000FE444444FC4451
:10018E004444002020080809FE080F44555555FF29
:10019E0055555F444400028458619A04780804FE61
:0601AE00222222220200C1
:1001DB00D2A1C2A2E4F590D2A0E590C2A020E7F98B
:0901EB00C2A18F90D2A0C2A02293
:0B01B500ED2EF582E43CF583E493FF9F
:1001C000D2A1C2A2E4F590D2A0E590C2A020E7F9A6
:0B01D000C2A1D2A28F90D2A0C2A02238
:0E020B00EF24B8FF1201DBED2440FF0201DBFF
:0A0235007FC01201DB7F3F0201DBF6
:04021900AD07AC067B
:09021D00E4FE1201B50EBE10F959
:0102260022B5
:04022700AD07AC066D
:09022B007E101201B50EBE20F98F
:0102340022A7
:1001F400EF24FE600804700AC2A3D2A422D2A3C2D0
:07020400A422C2A4C2A4223F
:10010F001202357F021201F47D0AE4FF12020B7E08
:10011F00007F8F1202197E007FAF1202197D0A7FB6
:10012F000112020B7E007F8F1202277E007FAF121B
:10013F0002277F021201F47D0512020B7E007FCF92
:10014F001202197E007FEF1202197D057F03120242
:0F015F000B7E007FCF1202277E007FEF02022768
:03000000020003F8
:0C000300787FE4F6D8FD75814702004AC2
:10000F0002010FE493A3F8E493A34003F68001F2F7
:10001F0008DFF48029E493A3F85407240CC8C333F2
:10002F00C4540F4420C8834004F456800146F6DFC1
:10003F00E4800B010204081020408090016EE47EE2
:10004F00019360BCA3FF543F30E509541FFEE493B6
:10005F00A360010ECF54C025E060A840B8E493A37D
:10006F00FAE493A3F8E493A3C8C582C8CAC583CAA8
:10007F00F0A3C8C582C8CAC583CADFE9DEE780BE60
:0101B400004A
:00000001FF
