:020000040000FA
:04000000E0EF06F037
:08000800056ED8CF06F0E0CF31
:1000100007F00001E9CF0DF0EACF08F0E1CF09F0D9
:10002000E2CF0AF0D9CF0BF0DACF0CF0F3CF14F017
:10003000F4CF15F0FACF16F000C00FF001C010F0A9
:1000400002C011F003C012F004C013F0A0AA2CEFFC
:1000500000F0A1BA8AEF05F00FC000F010C001F067
:1000600011C002F012C003F013C004F00E8E0DC0D8
:10007000E9FF08C0EAFF09C0E1FF0AC0E2FF0BC0C8
:10008000D9FF0CC0DAFF14C0F3FF15C0F4FF16C08F
:10009000FAFF055007C0E0FF06C0D8FF1000F76A5E
:1000A000AE0FF66E000EF7220900F55012000401A3
:1000B0000000000000000000000000000000F76ADF
:1000C000CE0FF66E000EF7220900F5501200400028
:1000D000010000000000000000000000000000001F
:1000E00000000000000000000000000000000DAE55
:1000F00003D0F2CF0EF0F29EF76A100FF66E010EEB
:10010000F7220900F5500DAE02D00EBEF28E12009D
:10011000400003000000000000000000000000009C
:1001200000000000000000000000000000000000CF
:10013000F76A400FF66E010EF7220900F550120023
:1001400009022000010100C0320904000002FFFF83
:10015000FF000705810201000107050102030001FC
:10016000F76A700FF66E010EF7220900F5501200C3
:100170000100F76A820FF66E010EF7220900F550B2
:1001800012001201100100000040D804110001000B
:1001900001020001F76AA40FF66E010EF7220900B2
:1001A000F550120000040C00F76AB80FF66E010E4D
:1001B000F7220900F55012000403090408034A005D
:1001C00031004D0016034A0031004D002000500060
:1001D000690063005500530042006D926994689471
:1001E00095EF05F06A6A68929EEF05F03B6A3B5214
:1001F0000AE1036A3B50240FE96E000E0320EA6E09
:10020000EF6A3B2AF4D71A6A010E1B6E196A000CBA
:10021000010E446E44500F080EE3700E4424016E2C
:100220000F0E036ED8B0032A01C0E9FF03C0EAFF36
:10023000EF6A442AEFD71E6A1D6A000C400E0401C3
:10024000016F050E036F026B880E006F046B050EC5
:10025000076F400E066F0001000C6A6A686A9F0E05
:100260006B6E390E696E6E6AC1DFD2DF160E706E6C
:1002700068A602D06896FCD76D98E0DF030E1F6E6B
:10028000A4EF05F0698468986D82AAEF05F0689C78
:10029000B0EF05F070A002D0D1DF7090689AB6EF91
:1002A00005F03FC020F0000CFF0E206E000C3D6AF0
:1002B000235235E03D503F0832E31C5005E0020A6E
:1002C0000DE0010A15E01ED0036A2250F2CF3FF084
:1002D000F29E2EDF3FBEF28E3E6E14D0036A225095
:1002E000F2CF3FF0F29E60DF3FBEF28E3E6E0AD04C
:1002F000036A2250F2CF3FF0F29E3BDF3FBEF28E08
:100300003E6E00D0222A23063D503D2A036A400F4C
:10031000E96E050E0320EA6E3EC0EFFFC9D72352F7
:1003200004E13D50400801E0196A3DC03FF0B9DFEB
:10033000000C226A1C6A05010351010A000105E054
:10034000030A08E0010A09E01FD0120E236E030E13
:100350001C6E1CD0200E236E19D0020E1C6E036A78
:1003600005010251F2CF3CF0F29E000113DF3CBECA
:10037000F28E226E036A2250F2CF3CF0F29E14DF1E
:100380003CBEF28E236E02D08FDF0CD005010753E6
:1003900005E12350065D02E206C523F0010E196E49
:1003A000000185DFECEF02F03C5204E1040E1F6E09
:1003B0002FDFC1D0050E1F6E3F6E800E3E6E010E08
:1003C0003D6E3D500F08D8A0B6D0406A036A3D503C
:1003D000F2CF44F0F29E63DE44BEF28E000A51E09A
:1003E000040E406ED8903D34036AF2CF44F0F29E82
:1003F0007EDE0900F5CF03F044BEF28E416E03C0ED
:1004000042F03D50080DF350010F016E040E036ED3
:10041000D8B0032A01C0E9FF03C0EAFF41C0EFFFE3
:100420003D50080DF350020F016E040E036ED8B05C
:10043000032A01C0E9FF03C0EAFF3FC0ECFFED5211
:100440003EC0EFFFD8903D34036AF2CF44F0F29EF5
:100450004EDE0900F5CF03F044BEF28E3E26035077
:100460003F22880E436E42B0438042B243823D50E9
:10047000080DF3CF01F0040E01C0E9FFEA6E43C09E
:10048000EFFF036A3D50F2CF44F0F29E08DE44BE17
:10049000F28E000A31E040823D50080DF350060F05
:1004A000016E040E036ED8B0032A01C0E9FF03C039
:1004B000EAFF3FC0ECFFED523EC0EFFFD8903D3465
:1004C000036AF2CF44F0F29EFADD0900F5CF03F0A3
:1004D00044BEF28E3E2603503F223D50080DF3509D
:1004E000040F016E040E036ED8B0032A01C0E9FFA9
:1004F00003C0EAFF400EEF6E4050060802E10E0E08
:10050000406E036A3D50F2CF44F0F29EC8DD44BE17
:10051000F28E020801E04088700E3D24016E0F0E3D
:10052000036ED8B0032A01C0E9FF03C0EAFF40C050
:10053000EFFF3D2A46D7E6EF02F005010151000129
:100540000DE0010A14E0020A1EE0060A27E0030A91
:100550002CE00E0A2BE0010A2FE03CD01BC040F536
:100560000501416B020E3F6E00019BDE35D0050197
:10057000022D06D0010E1B163F6A000192DE02D04A
:10058000000192DE29D00501022D05D01B823F6AB1
:10059000000187DE02D0000187DE1ED0020E196E38
:1005A00002C521F03F6A7DDE17D0C3D61AC040F5E0
:1005B000010E3F6E76DE10D005010251010808E3FE
:1005C00002C51AF002C53CF00001EED63F6A69DEB2
:1005D000000102D069DE00D011EF04F01AC03CF037
:1005E00005010151000105E00A0A0BE0010A2BE0B8
:1005F0003CD00501406B416B020E3F6E000151DEA5
:1006000036D03C521EE0010E3C5C036AF2CF3EF055
:10061000F29EA6DD3EBEF28E016E0501045DD8A0FD
:1006200002D000010ED0036A0451240FE96E000EBF
:100630000320EA6EEFCF40F5010E3F6E000131DE80
:1006400001D032DE14D03C520EE0036A05010451A1
:10065000240FE96E000E0320EA6E02C5EFFF3F6A29
:1006600000011FDE01D020DE02D01EDE00D011EF1F
:1006700004F03CAE3D903CBE3D803C9E3DA010D081
:10068000036A3C50F2CF3EF0F29E09DD3EBEF28E90
:10069000000A02E1000E01D0010E016E10D00FD051
:1006A000036A3C50F2CF3EF0F29EF9DC3EBEF28E81
:1006B000000A02E1000E01D0010E016E00D0D4EF5D
:1006C00003F03CAE3D903CBE3D803C9E3DA010D032
:1006D0003C50080DF350040F016E040E036ED8B0A9
:1006E000032A01C0E9FF03C0EAFF880EEF6E09D0BC
:1006F0003C50080DF3CF01F0040E01C0E9FFEA6E93
:10070000EF6AE3EF03F03CAE3D903CBE3D803C9E83
:100710003DA010D03C50080DF350040F016E040EA4
:10072000036ED8B0032A01C0E9FF03C0EAFF840EBC
:10073000EF6E0AD03C50080DF3CF01F0040E01C05B
:10074000E9FFEA6E840EEF6EE9EF03F03CAE3D90F8
:100750003CBE3D803C9E3DA010D03C50080DF35067
:10076000040F016E040E036ED8B0032A01C0E9FF26
:1007700003C0EAFFEFCF3EF00AD03C50080DF3CFA4
:1007800001F0040E01C0E9FFEA6EEFCF3EF03EAE8D
:1007900002D03EB402D0000E01D0010E016EF3EF84
:1007A00003F004C53CF065D7015229E00501015171
:1007B000010A000105E0020A09E0030A0DE01DD06C
:1007C00004C53CF07ED73F6A6CDD19D004C53CF00F
:1007D0009AD73F6A66DD13D00501406B416B04C5B3
:1007E0003CF00001B3D7015204E0010E0501406F57
:1007F0000001020E3F6E55DD02D056DD00D011EF34
:1008000004F0196A050100517F0B000105E0010A9F
:1008100004E0030A03E003D090D6E0D6C2D744DD5B
:1008200000D035EF05F03C50080DF3CF01F0040E79
:1008300001C0E9FFEA6EEFCF3EF03D50020806E14D
:100840003EAC02D03D6A02D0010E3D6E3D50030821
:1008500012E1840E3E6E3C50080DF350040F016E01
:10086000040E036ED8B0032A01C0E9FF03C0EAFFFB
:10087000840EEF6E09D03D2C03D0C80E3E6E04D01E
:100880003D5202E1880E3E6E036A010E026E3C503C
:10089000006E05E0D89002360336002EFBD70250DA
:1008A000FF0A006EFF0E031A00501D1603501E169D
:1008B000D8903C34036AF2CF41F0F29E18DC090074
:1008C000F5CF03F041BEF28E3F6E03C040F03C50C6
:1008D000080DF350010F016E040E036ED8B0032A09
:1008E00001C0E9FF03C0EAFF3FC0EFFF40B03E8018
:1008F00040B23E823C50080DF3CF01F0040E01C01F
:10090000E9FFEA6E3EC0EFFF000C3C50080DF350CB
:10091000040F016E040E036ED8B0032A01C0E9FF74
:1009200003C0EAFFEFCF40F040BE5BD03C50080D63
:10093000F350050F016E040E036ED8B0032A01C0F8
:10094000E9FF03C0EAFF3DC0EFFF3F50020816E198
:100950003C50080DF350040F016E040E036ED8B026
:10096000032A01C0E9FF03C0EAFFEFCF40F040AC2B
:1009700002D03F6A02D0010E3F6E13D03F500408F0
:1009800010E13C50080DF3CF01F0040E01C0E9FF67
:10099000EA6EEFCF40F040AC03D0010E3F6E01D0C5
:1009A0003F6A3F2C03D0C80E406E04D03F5202E194
:1009B000880E406E3EB040803EB240823C50080DF2
:1009C000F350040F016E040E036ED8B0032A01C069
:1009D000E9FF03C0EAFF40C0EFFF010E016E03D044
:1009E00000D0000E016E000C3C5202E127DC0FD05B
:1009F000036A010E026E3C50006E05E0D89002368C
:100A00000336002EFBD702501D1203501E12000C9D
:100A10003DC06EFF3D5203E0040E1F6E02D0020E79
:100A20001F6E18EF05F01A6A196A21C03DF0F0D761
:100A300024EF05F03C5208E1192C02D038DC04D038
:100A40001950020801E1EFD7000C6C303B6E3B32CD
:100A50003B321F0E3B166C523BE1040100513C0B34
:100A600034081BE1046B0001CCD6203C05D03C6A65
:100A7000030E3D6ED8DE0ED03C6A020E3D6ED3DE14
:100A80002050FE0807E03C6A3E6A20C03DF0040E9C
:100A90003F6E3BDF6D9819D0040100513C0B0408F8
:100AA00015E13C6A0001A0DF3C6A020E3D6EBBDE30
:100AB0002050FE080AE0203C01D007D03C6A3E6A84
:100AC00020C03DF0010E3F6E20DF040120D0000168
:100AD0006C50040812E1FF0E206E3C6AABDF203C34
:100AE00001D008D03C6A3E6A20C03DF0020E3F6E45
:100AF0000CDF02D01EEC01F009D06CB404D03BC076
:100B00003CF072DF03D03BC03CF094DF04010001F5
:100B1000BBEF05F01F5201E12FD068522DE068A411
:100B200004D069A402D0EDEF00F06DA201D024D072
:100B300068A204D069A202D0F2EF00F068A004D04D
:100B400069A002D02DEF01F068A804D069A802D0F6
:100B500042EF01F068AC04D069AC02D047EF01F07D
:100B600068AA04D069AA02D04AEF01F068A604D0AE
:100B700069A602D06AD76896A19A2CEF00F06D6A38
:100B8000696A080E6F6E94503009946E1F6A186A75
:100B9000F2BE188EF29EF6EC00F018BEF28E1E6ABF
:100BA0001D6AF6EF05F0186AF2BE188EF29EF6EC9A
:100BB00000F018BEF28E6D6A140E6F6E696A6D8653
:100BC000010E1F6EE7EF05F06DB601D0ECD71F2CBC
:100BD0000BD06DBA09D0686A696AA08AC00EF21299
:100BE000110E696E020E1F6E000CC9D7EDDF1F508B
:100BF0000208FCE1F2EF06F01A5202E10400FCD711
:100C0000F4EF06F02E50080DF350020F016E040EA3
:100C1000036ED8B0032A01C0E9FF03C0EAFFECCF9E
:100C200003F0ED52EFCF33F003C034F02E50080D37
:100C3000F350010F016E040E036ED8B0032A01C0F9
:100C4000E9FF03C0EAFFEF50036A366E03C037F0D6
:100C50002E50080DF3CF01F0040E01C0E9FFEA6E3B
:100C6000EFCF35F035B0378035B237823750325C50
:100C700008E303E13150365C04E237C032F036C09D
:100C800031F0376A366A3750325C1AE303E131508B
:100C9000365C16E233C0E9FF34C0EAFFEFCF3AF02A
:100CA00030C0EAFF2FC0E9FF3AC0EFFF2F2AD8B4C7
:100CB000302A332AD8B4342A362AD8B4372AE3D78C
:100CC00031C001F032C002F071EF06F029C02EF001
:100CD0002BC030F02AC02FF02DC032F02CC031F0E4
:100CE00091D702C02DF001C02CF0186AF2BE188E08
:100CF000F29E29C03CF0020E3D6E95DD18BEF28ECC
:100D00002CC001F02DC002F005EF07F02950080DAE
:100D1000F350040F016E040E036ED8B0032A01C015
:100D2000E9FF03C0EAFFEFCF31F031BE45D02950D3
:100D3000080DF350060F016E040E036ED8B0032A9F
:100D400001C0E9FF03C0EAFFECCF03F0ED52EFCFA3
:100D500032F003C033F0306A2F6A30502D5C1AE352
:100D600003E12C502F5C16E22AC0E9FF2BC0EAFFFA
:100D7000EFCF36F033C0EAFF32C0E9FF36C0EFFFF5
:100D8000322AD8B4332A2A2AD8B42B2A2F2AD8B404
:100D9000302AE3D7186AF2BE188EF29E29C03CF0C2
:100DA0002DC03EF02CC03DF02EC03FF0AEDD18BE91
:100DB000F28E015003D000D0000E016E15EF07F047
:100DC000F86AD09E0D8EEA6AE96AC150C00B0F091D
:100DD000C16E070EB46E1F6A236A939C8A9C939E11
:100DE0008A8E03D7F1DE08D7939E8A9E939C8A8CC5
:100DF0001A5230E01DA22ED0010E296E2B6A250E4C
:100E00002A6E2D6A030E2C6E61D725520EE12750F3
:100E10002624286E010E296E2B6A280E2A6E2D6A52
:100E2000010E2C6E020E2E6E71D7252C13D0265279
:100E300004E1939C8A9C939E8A9E262C04D0939CCA
:100E40008A8C939E8A9E2650020804E1939C8A9C79
:080E5000939E8A8ECDD70300AA
:020000040030CA
:0E000000220E3E1E008381000FC00FE00F4055
:00000001FF
;PIC18F2550
